:1000000037060010930780042300F600834705009D
:10001000370700109306D0022300F60089CB230097
:10002000F7002300D700834715000505EDFB82800C
:10003000797117A50A001305A52D06F422F026EC08
:100040004AE8EFF0923819661306667597B50A000C
:10005000938505F32A84EFF0F24997A50A0093856A
:10006000A52B2285EFF0523BAA8497A50A00938521
:10007000252B2285EFF0523A0566130606C497A594
:100080000A009385E52B2A892685EF10E30A268549
:10009000EFE0A24D8145EFE0C2002285EFF0723A19
:1000A0004A85EF10E3602285EFF07249B7676C6C08
:1000B000938787563EC49307F0062316F100370650
:1000C0000010930780042300F60083478100380066
:1000D000B70600102300F6001306D00289CB238058
:1000E000F6002380C600834717000507EDFB027466
:1000F000A270E264426997A50A009385E52305454D
:1001000045616F20174317670E000337E7F39767C2
:100110000E0083B7E71C6373F7029386F7FF998E8F
:10012000F19A97670E0083B727DE9106BE9690433B
:1001300091071107232EC7FEE39BD7FE97670E009A
:1001400083B787E217670E00033787F963FCE70080
:100150007D171D8F719B11073E97910723AE07FEF8
:10016000E39DE7FE8280411106E417610E00033132
:1001700021F9EFF05FF9EFF0BFEBA260014541011B
:10018000828025710967D6F69B0AA70D1B07578049
:100190003AC47D771B07B719F9773AC6757722EB12
:1001A0004AE3CEFE0569E2EA9308810217640E0075
:1001B000033484D61B8C17278D691B07F76F9B8729
:1001C000E709D2FADAF2DEEEE6E69B0BF9C39B0C06
:1001D000998A06EF26E7EAE26EFE46EC146036F6F0
:1001E0008146130A06011B09092D130B704C9B89CC
:1001F000A9123AC83ECA031E0601031D0602831E49
:100200000603831D0604031F0605B367AE018316AC
:100210000606B3E7FE00831F0607B3E7FD00B367DA
:10022000FF00D58FB3E7FF0003130600639F072687
:100230001B13230023A0680E23A0680C23A0680AC8
:1002400023A0680823A0680623A0680423A06802EE
:1002500023A0680009069108E31FCAF809671B0775
:100260005780856A3AC87D779B860A2D1B07B71988
:10027000F97736C43ACA8D6675771B8C17279B862B
:10028000A6121B07F76F9B87E70962689B8C9A8A07
:100290009B8BFAC3130D8112130B704C36C6BA8AAE
:1002A0003ECCB7090101130EF00F83248800832789
:1002B000880183260801832E0800BB8D9700BB8D23
:1002C0009D030324C801832348018322C800032F10
:1002D00048003B87D601BB8EDE40A246BB88820029
:1002E0003B037F00BB8787033B0913019B9ECE0026
:1002F000BB0F8F003B8672001B17C700BB847403C3
:10030000BB87B7013B09D902D246BB84B401BB8D80
:10031000FE00BB87FE40E24EBB8DB901BB87F900F2
:10032000BB8FDF02BB069700059F9304309CBB8602
:10033000D9003B87E9003B065603BB8F2F013B8367
:100340006402C2443B062601BB88D803896E9B8E9B
:10035000AE0D3B048B023B0F9F02BB04F3013B033A
:10036000C3003B86C800BB88F801BB8888003244C4
:10037000BB83D303BB84E4013B8F96001B5F1F410B
:10038000137AFF0FBB8282023B0373003B065600C9
:100390006378EE01134FFFFF135FFF43137AFF0FE4
:1003A000859E9BD616412300450193FEF60F637789
:1003B000DE0093C6F6FFFD9693FEF60FBB86CD00DA
:1003C0009BD61641A303D50193FEF60F6377DE009B
:1003D00093C6F6FFFD9693FEF60FBB8DCD409BDDD9
:1003E0001D41A300D50113F6FD0F6378BE0193CD27
:1003F000FDFF93DDFD4313F6FD0FBB8667009BD623
:1004000016412303C50013F6F60F6377DE0093C68B
:10041000F6FFFD9613F6F60FBB8767409BD7174193
:100420002301C50093F6F70F6377FE0093C7F7FF2C
:10043000FD9793F6F70FBB0717019BD71741A30250
:10044000D50093F6F70F6377FE0093C7F7FFFD978C
:1004500093F6F70F3B071741A301D5001B57174130
:100460006373EE161347F7FF7D972302E500130829
:1004700008022E95E31BA8E397670E0083B7C7A970
:1004800032779C63B98F014763970714FA605A6407
:10049000BA641A69F679567AB67A167BF66B566C98
:1004A000B66C166DF27D1D618280BB04DD00BB84DD
:1004B00094033B04B3013B03B3411B13C3003B88CC
:1004C000CF011B14C400BB02DF013B87DF01BB0768
:1004D000CF01BB03F700BB06DC02090691083B8D88
:1004E000AB03A59EBB8D6600BB06D34032439B8603
:1004F00006209B8D0D203B0D9D003B0868023B03B1
:100500008D003B0DA44142441B0D0D201B03032015
:10051000BB8282025244BB8323033B07870213043E
:10052000309C3B087800BB827200BB0FFB03BB838F
:10053000E2003B07E800BB07F4023B07F701BB0FF3
:10054000A7013B07ED401B57A74023AEE8069BDF02
:10055000AF4023AEF8053B8FEA033B08F800BB87AA
:10056000F200BB87E7013B87D700BB87F6409BD7EC
:10057000A74023AEF808A247BB8ED9031B57A7405C
:1005800023AEE8023B8EC703BB83D301BB87B30115
:100590009BD7A74023AEF800BB8D7D409BDDAD40CF
:1005A00023AEB80B3B08C801BB0768003B030341FF
:1005B0009BD7A7401B53A34023AEF8FE23AE680C85
:1005C000E31BCAC261B92302E500130808022E9595
:1005D000E31DA8CD55B5EF20277C2E858280635D75
:1005E000D0020147B387E50003C80700B307E60060
:1005F00083C807009B171800BB870701BB8717013B
:1006000089273308E5009BD7274005072300F8001A
:100610009B070700E3C8D7FC828083C70500034718
:1006200006009B981700BB88F800BB88E8009B87F2
:1006300028009BD72740054793F7F70F6383E60809
:100640002300F5006359D7069B87E6FF8217138EB8
:100650002500819385050506130315003E9E83C77B
:1006600005000347060085051B9817003B08F800A6
:100670003B08E8009B1718001B9718003B07170161
:10068000BB870701BB8717013B0707012127A1276C
:100690001B5747409BD747402300E300A300F300CC
:1006A0009B08080005060903E39BC5FB89289BD826
:1006B000284093F7F80F9B961600AA96A38FF6FE94
:1006C0008280A300F5002300F50082806359D02AC0
:1006D0006357E02A9B87F6FF197182178193D2EC4A
:1006E000138A15003E9A93170702130610F08193A0
:1006F000CEF0D6E8DAE4931A8602131B0602DEE097
:100700009B09F7FF931B86013EEC4216B547B3B930
:1007100037019307F6FF3EE4FD5762FC66F8370C9D
:1007200001FFC17CA183A2FC6AF46EF0A6F8CAF4B2
:100730002E8E1B040700BB0DE040BB03A040AA8F18
:100740008142814E330DE500938CFC0F7D1CFD1B17
:100750007D1BFD1A3EE87283B3075D00050EB337BB
:10076000F300B3B6CF0193C7170093C61600D58F19
:1007700093F7F70F1B8F0E006389071C6387091C13
:1007800013F67300630F061C83460300854723801E
:10079000DF00630AF61C9B871E00AA972380D70000
:1007A00089476304F61C834603009B872E00AA97A3
:1007B0002380D7008D47630CF61A9B873E00AA97CB
:1007C0002380D70091476306F61A834603009B8770
:1007D0004E00AA972380D7009547630EF6189B8793
:1007E0005E00AA972380D7009D476318F6188346BA
:1007F00003009B876E00AA972380D7001D4983487A
:100800000300A264BB05C440B3F698019397880027
:10081000D58FB3F7870193960801D58FB3F777018A
:1008200093968801D58FB3F7670193960802D58F09
:10083000B3F7570193968802D58FE58F93960803F7
:10084000D58FC2661BD835007D381696F58F2A964F
:100850009316080213D8D601E218930686009B84EB
:100860000500B3E71701369811A0A1061CE23686F1
:10087000E39D06FFE1999B870500BB852501638009
:10088000F40A834603003B86E5012A969B87150000
:100890002300D6001B8607006353E608BB87E701E9
:1008A000AA971B8625002380D7009B07060063D8E4
:1008B000E706834703003B06E6012A969B86350040
:1008C0002300F6001B860600635BE604BB86E60198
:1008D000AA961B8645002380F6009B07060063D07E
:1008E000E704834703003B06E6012A969B865500F2
:1008F0002300F6001B8606006353E602BB86E60172
:10090000AA9699252380F6009B87050063D9E70006
:1009100083470300BB85E501AA952380F500BA9FB4
:10092000BB8E8E00BA92BB837D00E3164EE36674E5
:10093000C67426798679666AC66A266B866B627C7F
:10094000C27C227D827D09618280E266FE873386D9
:10095000F601834603008507A38FD7FEE39BC7FEFE
:100960007DBF014969BD054959BD094949BD0D49C9
:1009700079B5114969B5154959B5194949B5828003
:100980006350E010797122F426F03784FAFFB774CF
:100990001600B793F4FFB7621C004AEC4EE852E42D
:1009A00056E0014F370A08009B8404F01B0404E062
:1009B000C1799B8303309B8202A0930FF00F7D5976
:1009C0003388E60103480800B308E60183C808003D
:1009D0001B0808F83B0E98029B8808F83383E50152
:1009E000034303001B1343013B034301BB8A8802FB
:1009F0003B0E6E001B5E4E41934EFEFF93DEFE43A8
:100A000093FEFE0F3B087802B3FA3A01BB88580206
:100A10003B0868003B0858011B584841BB886800E8
:100A20009BD8484163E4CF01937EFE0F1343F8FF48
:100A30001353F3431373F30F63E40F011373F80FAE
:100A400013C8F8FF1358F8431378F80F63E41F0135
:100A500013F8F80F050F230105012300D501A300AA
:100A60006500A30125011B080F003E95E34AE8F449
:100A7000227482746269C269226A826A45618280D4
:100A8000828001118A0526E48567B304B500A69724
:100A90008395478322E806EC2A8463C60500C215C5
:100AA000C191EFF01FFEA567A29703A7078683A653
:100AB00087856351D70E83A6C785106C8565B99E5F
:100AC0001BD7F6411B57E701359F1B5727403A9626
:100AD000AE94854518642300B60003C6748383B7BB
:100AE0008783930500081B162600B29703C63700BC
:100AF00063F3C50203C6270036972300C70083C6E9
:100B00001700A300D70083C607002301D70083C7BF
:100B10003700A301F700A5673305F4008327C585D7
:100B2000832645851B874700232EE5846344D7062B
:100B300083260586832745840327C58483288585E6
:100B4000B59F232EE5842320F5861B87070063438A
:100B500017057D58032705841358080235A08327FD
:100B6000458683250585BB97E7001BD7174082176D
:100B70002D9FDD8E2320E5869B0707002330D5843B
:100B80001B07060063C817011B06F7FFB376C800F2
:100B9000E347E0FCE2604264A2640561828087254D
:100BA000060007A506000721080007A208008727FE
:100BB000050007A605008720070007A0070053F3DC
:100BC000470853772608D3F10508D37615085376DE
:100BD000260017430B008722A3605371E300D370F4
:100BE0001500D3F6D100D3F7470053F00500537733
:100BF000370017430B000722235F53F52608D3F66F
:100C000056105372411017430B008723A35D1743FF
:100C10000B000721A35CD3F21708C3767568CB716C
:100C20002730D37506084375752043772730D3F7EF
:100C3000170053760600D3F03600D3F55500D3F1F4
:100C4000D1085370E5005377A70853F5C70027A0D4
:100C50001700C3F6252827A03600D3F7C70827A01A
:100C60000500CBF5252827A0E8002720A500272090
:100C7000D6002720F7002720B800828097470B0076
:100C800087A7C7565375F5105375F5008280D307B3
:100C900000F0D317F5A099C35315A52097470B0073
:100CA00087A70755D307F5A081E7530500F0828099
:100CB00053F5A708828097470B0007A567538280EA
:100CC000D30700F0D317F5A099C35315A520974774
:100CD0000B0087A7E751D317F5A0A1E797470B00B3
:100CE00087A70752D317F5A081E7530500F082804C
:100CF00097470B0007A74750D377A70897470B00E4
:100D000007A6475097470B0087A60750D3F7A710B1
:100D1000D3F7C70853F5A7105375D5005375E518D9
:100D2000828097470B0087A7E74CD377F51097474A
:100D30000B0007A7674C5375A51097470B0087A6B4
:100D4000E74BD3F7E70853F5A7105375D500537554
:100D5000E5188280D30700F0D317F5A099C3531587
:100D6000A52097470B0087A7A748D317F5A0A1E7B1
:100D700097470B0087A7C748D317F5A081E753050E
:100D800000F0828097470B0007A747465377E5108E
:100D900097470B0007A6C74797470B0087A607464C
:100DA0005377C7085377A7105377D7005375A71009
:100DB00053F5A708828097470B0087A62745D3766F
:100DC000D51097470B0007A7A7445375A510537775
:100DD000D7085375A71053F5A7088280D30700F0F2
:100DE000D317F5A099C35315A52097470B0087A7E4
:100DF0002740D317F5A0B1EF97470B0087A74740CF
:100E0000D317F5A081E7530500F0828097470B00C8
:100E100007A707415377E51097470B0087A7C73F00
:100E200097470B0087A5074097470B0007A6C73FCA
:100E300097470B0087A6873ED3F7E708D3F7A7109D
:100E4000D3F7B70853F5A7105375C5005375D518D8
:100E5000828097470B0087A7E73BD377F51097472A
:100E60000B0007A6673B5375A51097470B0087A695
:100E7000674797470B0007A7673AD3F7C70853F5AB
:100E8000A7105375D5005375E518828097470B005E
:100E900007A5C735828097470B0007A56735828075
:100EA00097470B0007A5C7358280014582806348BC
:100EB00005006353B50082801B85F5FF82800145E4
:100EC00082805841397122F826F44AF022A406FCA7
:100ED0004EEC5304A5201C412A89B2842E8463451C
:100EE000C7026356F6061D9FBB86C7406344E008F1
:100EF0000A07B387E5008A0687A707003387D7006C
:100F0000F1172720F700CDBF1D9FBB09F6401B0539
:100F10001700635F35011B86E9FF199E93170602D0
:100F200013D6E7010A05110681452295EFB0E616B2
:100F30008A09B3073401E270427427A08700232294
:100F40009900E269A2740279222421618280BB04A3
:100F5000F6408A04B387950087A70700E2704274C1
:100F6000D3F7A700A2740279E269222427A0F70030
:100F7000216182808547638AF60093874500872731
:100F80000400F11727A2F700DDBF2720A400E270BC
:100F900042742320C900A2740279E26922242161EB
:100FA00082808A05AA951308050163E60507328742
:100FB000C28797460B0087A7662783460700C107AD
:100FC000110753F716D05377F71027A0E7FE834693
:100FD000D7FF53F716D05377F71027A2E7FE8346C3
:100FE000E7FF53F716D05377F71027A4E7FE8346A1
:100FF000F7FF53F716D05377F71027A6E7FEE3FE67
:10100000F5FA3385A54041151181930715008A072C
:1010100012053E9642956372B50297470B0087A76B
:10102000E720834706001105050653F717D05377CD
:10103000F710272EE5FEE366B5FE82803308B50083
:1010400093084500636F180B530600F0C68732877C
:1010500097460B0087A7C61D97460B0087A6061963
:101060000727070081465377F7105377D7005315AA
:10107000C7A011E55395E7A09306F00F79CD238E15
:10108000D7FE0727470081465377F7105377D700DD
:101090005315C7A011E55395E7A09306F00F79C14A
:1010A000A38ED7FE0727870081465377F710537723
:1010B000D7005315C7A011E55395E7A09306F00F8D
:1010C0005DC5238FD7FE0727C70081465377F710EA
:1010D0005377D7005315C7A011E55395E7A09306A2
:1010E000F00F3DC5A38FD7FE91074107E37AF8F6CD
:1010F000F11589819387150092078A053E963385FD
:10110000B80063710505530600F097470B0087A7E9
:10111000271297470B0087A6670D07270600814710
:1011200011065377F7105377D7005317C7A011E76D
:101130005397E7A09307F00F19C72300F5000505A3
:10114000E31DA8FC8280D31717C093F7F70FF5B7FC
:10115000D31617C093F6F60F71B7D31617C093F6D0
:10116000F60F31BFD31617C093F6F60F15BFD3167F
:1011700017C093F6F60FB1B78A05AA9513080501B3
:1011800063EA05053287C28783460700C107110756
:10119000D3F716D027A0F7FE8346D7FFD3F716D094
:1011A00027A2F7FE8346E7FFD3F716D027A4F7FE62
:1011B0008346F7FFD3F716D027A6F7FEE3F6F5FC34
:1011C0003385A54041151181930715008A07120543
:1011D0003E964295637CB5008347060011050506DF
:1011E000D3F717D0272EF5FEE368B5FE82803308CB
:1011F000B500930845006367180BD30600F0C68757
:10120000328797460B0087A766FE97460B0007A616
:1012100026020727070081465377F7005315D7A00A
:1012200011E55315E6A09306F00F79C5238ED7FE7E
:101230000727470081465377F7005315D7A011E5DC
:101240005315E6A09306F00F4DCDA38ED7FE0727CA
:10125000870081465377F7005315D7A011E5531542
:10126000E6A09306F00F5DC1238FD7FE0727C700C6
:1012700081465377F7005315D7A011E55315E6A023
:101280009306F00F2DC5A38FD7FE91074107E37298
:10129000F8F8F11589819387150092078A053E9623
:1012A0003385B800637F0503D30600F097470B0032
:1012B00087A7C7F397470B0007A687F707270600FE
:1012C000814711065377F7005317D7A011E753173B
:1012D000E6A09307F00F19C72300F5000505E31FEB
:1012E000A8FC8280D31717C093F7F70FF5B7D31672
:1012F00017C093F6F60F41BFD31617C093F6F60F3B
:1013000035B7D31617C093F6F60F81B7D31617C0AB
:1013100093F6F60F91BF139825002A9893080501BC
:10132000636618073287C68797150B009385C564D7
:1013300083460700C10711078A06AE9687A70600F5
:1013400027A0F7FE8346D7FF8A06AE9687A706003A
:1013500027A2F7FE8346E7FF8A06AE9687A7060018
:1013600027A4F7FE8346F7FF8A06AE9687A70600F6
:1013700027A6F7FEE37EF8FA3305A8404115118150
:10138000930715008A0712053E96469597150B00A0
:101390009385855E637E050183470600110505067A
:1013A0008A07AE9787A70700272EF5FEE36605FF9D
:1013B00082808A05AA9517170B001307E75B9747EA
:1013C0000B0007A7A7E683470600410511068A0719
:1013D000BA9787A707002728F5FE8347D6FF8A0715
:1013E000BA9787A70700272AF5FE8347E6FF8A07F3
:1013F000BA9787A70700272CF5FE8347F6FFD3F798
:1014000017D0D3F7E710272EF5FEE36EB5FA8280EA
:101410008A0513080501AA95C28763EC0507328780
:1014200097180B009388485597460B0007A706E0CE
:1014300083460700C10711078A06C69687A70600DC
:1014400027A0F7FE8346D7FFD3F716D0D3F7E710D0
:1014500027A2F7FE8346E7FF8A06C69687A70600FF
:1014600027A4F7FE8346F7FFD3F716D0D3F7E7108C
:1014700027A6F7FEE3FEF5FA3385A5404115118155
:101480009307150013972700120592073A96C29703
:1014900042956370B50223A807FE034716009746DE
:1014A0000B0007A7A6D8D37717D0D3F7E71027AA42
:1014B000F7FE82808A05AA95130E050163E6C5072B
:1014C0003287F28797460B0087A7C6D603530700DB
:1014D000835827000358470083566700D37513D0FD
:1014E00053F618D0D37618D053F716D0D3F5F5109D
:1014F0005376F610D3F6F6105377F710C10727A0EE
:10150000B7FE27A2C7FE27A4D7FE27A6E7FE21071E
:10151000E3FEF5FA3385A5404115118193071500C7
:101520008E0712053E9672956372B50297470B00BF
:1015300087A747D0835706001105090653F717D030
:101540005377F710272EE5FEE366B5FE828093966B
:101550001500AA961303850063E6660C530600F097
:1015600041689A87328797450B0087A7E5CC974556
:101570000B0087A6A5C77D1807270700814553776D
:10158000F7105377D700D318C7A063970800D398F4
:10159000E7A0C2856385080E07274700239CB7FE96
:1015A00081455377F7105377D700D318C7A06397B7
:1015B0000800D398E7A0C2856388080C0727870036
:1015C000239DB7FE81455377F7105377D700D31883
:1015D000C7A063970800D398E7A0C285638B080A69
:1015E0000727C700239EB7FE81455377F71053772F
:1015F000D700D318C7A063970800D398E7A0C28587
:10160000638A0806239FB7FEA1074107E3F6F6F6B3
:101610003385A64061150D819307150092070E05CD
:101620003E961A956372D504530600F0C16597473C
:101630000B0087A767C097470B0087A627BBFD1540
:1016400007270600814711065377F7105377D70015
:101650005317C7A009E75397E7A0AE8719C7231010
:10166000F5000905E36ED5FC8280D31717C0C217B9
:10167000C193F5B7D31517C0C215C19161B7D31582
:1016800017C0C215C19109BFD31517C0C215C191AA
:1016900035B7D31517C0C215C19199B78A05AA9558
:1016A000130E050163EAC5053287F287035307006D
:1016B000835827000358470083566700537613D09A
:1016C000D3F618D0537718D0D3F716D027A8C7FE73
:1016D00027AAD7FE27ACE7FE27AEF7FEC1072107F2
:1016E000E3F6F5FC3385A5404115118193071500FC
:1016F0008E0712053E967295637CB50083570600EF
:1017000011050906D3F717D0272EF5FEE368B5FEBD
:10171000828093961500AA961303850063EE660AED
:10172000D30600F041689A87328797450B0087A758
:10173000E5AB97450B0007A625B07D1807270700E6
:1017400081455377F700D318D7A063970800D318C3
:10175000E6A0C285638D080C07274700239CB7FECF
:1017600081455377F700D318D7A063970800D318A3
:10177000E6A0C2856382080C07278700239DB7FE79
:1017800081455377F700D318D7A063970800D31883
:10179000E6A0C2856387080A0727C700239EB7FE15
:1017A00081455377F700D318D7A063970800D31863
:1017B000E6A0C28563880806239FB7FEA1074107FC
:1017C000E3FEF6F63385A64061150D8193071500FB
:1017D00092070E053E961A956370D504D30600F065
:1017E000C16597470B0087A767A097470B0007A61F
:1017F000A7A4FD1507270600814711065377F700B8
:101800005317D7A009E75317E6A0AE8719C72310CF
:10181000F5000905E360D5FE8280D31717C0C21713
:10182000C193F5B7D31517C0C215C19171B7D315C0
:1018300017C0C215C1910DB7D31517C0C215C191FC
:1018400025BFD31517C0C215C191B9B78A05B30614
:10185000B500930E050163EFD61132887685974760
:101860000B0007A7A79D97470B0087A7679D37EE3B
:10187000FF0F3703807FB7080080035708009B17CE
:10188000D700B3F7C701D38607F01B170701337FD3
:101890001701D376D710D38706E05387D7A08127C7
:1018A000B3EF670019C39B870F0003572800B36786
:1018B000FF002328F5FE9B17D700B3F7C701D38697
:1018C00007F01B170701337F1701D376D710D38793
:1018D00006E05387D7A08127B3EF670019C39B8722
:1018E0000F0003574800B367FF00232AF5FE9B173C
:1018F000D700B3F7C701D38607F01B170701337F63
:101900001701D376D710D38706E05387D7A0812756
:10191000B3EF670019C39B870F0003576800B367D5
:10192000FF00232CF5FE9B17D700B3F7C701D38622
:1019300007F01B17070133771701D376D71021085B
:10194000D38706E0538FD7A08127B3EF67006304E6
:101950000F009B870F005D8F232EE5FE4105E3FE00
:10196000A6F0C1159181938715008E0792053E96CA
:101970003385BE00637ED50497470B0007A7078C0D
:1019800097470B0087A7C78B37EEFF0F3703807F82
:10199000B70800800357060009069B17D700B3F766
:1019A000C701D38607F01B17070133771701D376DA
:1019B000D710D38706E0D385D7A0812733E8670007
:1019C00099C19B0708005D8F18C11105E364D5FC20
:1019D000828041119398150022E426E0AA9813040E
:1019E000850063EE8814A16237080080B71300C831
:1019F000938E02C0A287B2851348F8FF370E804746
:101A0000B70F8038FD3317370B008727277E370F36
:101A1000807F938202E0216385A0F6846373DF00F8
:101A2000968494451B57070133776700D98C239D13
:101A300097FE33F70601636DC709F6846373EF0001
:101A40009684D8459BD60601B3F66600D58C239EB6
:101A500097FEB376070163E4C60BF6846373DF0079
:101A600096841B57070133776700D98C239F97FE15
:101A7000A107C10563EBF80A944133F706016360DF
:101A8000C717F6846373EF009684D8419BD606018E
:101A9000B3F66600D58C239C97FEB3760701E3FE70
:101AA000C6F763F2F619538706F01B570701337721
:101AB000670053F7E700D30607E0939406039445C5
:101AC000C190D98C239D97FE33F70601E377C7F7C2
:101AD0006377F717530707F09BD60601B3F6660046
:101AE00053F7E700530707E093140703D845C19065
:101AF000D58C239E97FEB3760701E3F0C6F763FC0F
:101B0000F60F538706F01B5707013377670053F72B
:101B1000E700A107C105D30607E093940603C1902F
:101B2000D98C239B97FEE3F9F8F43385A84061151F
:101B30000D819307150092070E053E962295637C52
:101B40001509A16237080080B71F00C8938E02C034
:101B50001348F8FF370F804737048038FD3F973729
:101B60000B0087A7A768B703807F938202E0216EEE
:101B700039A863F3D30096871B5707013377C70152
:101B8000D98F2310F5000905110663761505184253
:101B9000F687B3760701E3FEE6FD9BD5D60085897F
:101BA000BB87F601AD9F9BD7D70063F6860A5387A4
:101BB00006F01B5707013377C70153F7E700090504
:101BC0001106530307E093170303C193D98F231F13
:101BD000F5FEE36E15FB2264826441018280637826
:101BE000F703530707F053F7E700530707E0931491
:101BF0000703C19059BD9BD4D6008588BB8676006B
:101C0000A59E9BD6D60093940603C19099BD9B5484
:101C1000D70085883B077700259F1B57D700931473
:101C20000703C1909DB59BD4D6008588BB867600FE
:101C3000A59E9BD6D60093940603C190DDB39B541A
:101C4000D70085883B077700259F1B57D700931443
:101C50000703C190FDB3C217C19339BF8A05AA9586
:101C6000410563EAA50497370B0087A7275C8347E4
:101C700026004105110653F717D05377F710272098
:101C8000E5FE8347D6FF53F717D05377F710272287
:101C9000E5FE8347C6FF53F717D05377F710272485
:101CA000E5FE8347F6FF53F717D05377F710272643
:101CB000E5FEE3FEA5FA8280AA95110563E4A50A74
:101CC000530600F097370B0007A7875697370B008E
:101CD00087A6C751872786008147D3F7E710D3F738
:101CE000D7005397C7A011E75317F7A09307F00F3A
:101CF00041C3230EF5FE872746008147D3F7E7103F
:101D0000D3F7D7005397C7A011E75317F7A093074E
:101D1000F00F25C7A30EF5FE872706008147D3F7EE
:101D2000E710D3F7D7005397C7A011E75317F7A0D1
:101D30009307F00F21CB230FF5FE8727C6008147BD
:101D4000D3F7E710D3F7D7005397C7A011E753177E
:101D5000F7A09307F00F01CBA30FF5FE1105410685
:101D6000E3FAA5F68280D39717C093F7F70FEDB784
:101D7000D39717C093F7F70FADBFD39717C093F75B
:101D8000F70F49BFD39717C093F7F70F6DB78A05C1
:101D9000AA95410563EEA502834726004105110679
:101DA000D3F717D02720F5FE8347D6FFD3F717D0F8
:101DB0002722F5FE8347C6FFD3F717D02724F5FE69
:101DC0008347F6FFD3F717D02726F5FEE3F6A5FCE9
:101DD0008280AA95110563ECA508D30600F0973719
:101DE0000B0007A7A74097370B0007A66744872774
:101DF00086008147D3F7E7005397D7A011E7531721
:101E0000F6A09307F00F35CB230EF5FE872746008B
:101E10008147D3F7E7005397D7A011E75317F6A0F0
:101E20009307F00F25C3A30EF5FE87270600814711
:101E3000D3F7E7005397D7A011E75317F6A09307FE
:101E4000F00F31C7230FF5FE8727C6008147D3F770
:101E5000E7005397D7A011E75317F6A09307F00FA9
:101E600001CBA30FF5FE11054106E3F2A5F8828030
:101E7000D39717C093F7F70FEDB7D39717C093F722
:101E8000F70F59B7D39717C093F7F70F69BFD397D9
:101E900017C093F7F70F7DB78A05AA95410563EA46
:101EA000A50417170B00130727AD8347260041052C
:101EB00011068A07BA9787A707002720F5FE8347F0
:101EC000D6FF8A07BA9787A707002722F5FE834720
:101ED000C6FF8A07BA9787A707002724F5FE83471E
:101EE000F6FF8A07BA9787A707002726F5FEE3FEC5
:101EF000A5FA82808A05AA9517170B001307C7A7B2
:101F000097370B0007A78732834726004105110644
:101F10008A07BA9787A707002728F5FE8347D6FFC9
:101F20008A07BA9787A70700272AF5FE8347C6FFC7
:101F30008A07BA9787A70700272CF5FE8347F6FF85
:101F4000D3F717D0D3F7E710272EF5FEE36EB5FAD7
:101F500082808A05AA95410563EAA50497370B009C
:101F600087A7472D035846008356260003570600CF
:101F700083576600D37518D053F616D0D37617D092
:101F800053F717D0D3F5F5105376F610D3F6F610B5
:101F90005377F71041052720B5FE2722C5FE2724D9
:101FA000D5FE2726E5FE2106E3FEA5FA82808605FA
:101FB000AA95210563E2A50A530600F04167973709
:101FC0000B0007A7672797370B0087A627227D17E7
:101FD000872786008147D3F7E710D3F7D700D3963A
:101FE000C7A089E6D316F7A0BA87ADCE87274600EB
:101FF000231CF5FE8147D3F7E710D3F7D700D3961C
:10200000C7A089E6D316F7A0BA87B5C2872706000E
:10201000231DF5FE8147D3F7E710D3F7D700D396FA
:10202000C7A089E6D316F7A0BA87B9C68727C60026
:10203000231EF5FE8147D3F7E710D3F7D700D396D9
:10204000C7A089E6D316F7A0BA8781CA231FF5FE79
:1020500021054106E3FEA5F68280D39717C0C2177B
:10206000C193EDB7D39717C0C217C19341B7D397A8
:1020700017C0C217C19359BFD39717C0C217C193D6
:1020800075B78A05AA95410563EEA5020358460077
:10209000835626000357060083576600537618D0F0
:1020A000D3F616D0537717D0D3F717D02728C5FE0D
:1020B000272AD5FE272CE5FE272EF5FE4105210611
:1020C000E3F6A5FC82808605AA95210563EAA508AA
:1020D000D30600F0416797370B0007A72711973702
:1020E0000B0007A667157D17872786008147D3F762
:1020F000E700D396D7A089E6D316F6A0BA87BDC667
:1021000087274600231CF5FE8147D3F7E700D396C7
:10211000D7A089E6D316F6A0BA87B1CE87270600E6
:10212000231DF5FE8147D3F7E700D396D7A089E6B4
:10213000D316F6A0BA87A9C68727C600231EF5FEC8
:102140008147D3F7E700D396D7A089E6D316F6A048
:10215000BA8781CA231FF5FE21054106E3F6A5F8DB
:102160008280D39717C0C217C193EDB7D39717C01A
:10217000C217C19371B7D39717C0C217C19379BF64
:10218000D39717C0C217C19345BF93982500AA984B
:102190009306050163E3D81097370B0007A7070ADA
:1021A00097370B0087A7C70937E8FF0F3705807FF0
:1021B000B7050080035746009B17D700B3F7070108
:1021C000D38607F01B1707013373B700D376D710F8
:1021D000D38706E05387D7A0812733EEA70019C322
:1021E0009B070E0003572600B367F30023A8F6FEF3
:1021F0009B17D700B3F70701D38607F01B1707011A
:102200003373B700D376D710D38706E05387D7A0B0
:10221000812733EEA70019C39B070E000357060062
:10222000B367F30023AAF6FE9B17D700B3F70701A5
:10223000D38607F01B1707013373B700D376D71087
:10224000D38706E05387D7A0812733EEA70019C3B1
:102250009B070E0003576600B367F30023ACF6FE3E
:102260009B17D700B3F70701D38607F01B170701A9
:102270006D8FD376D7102106D38706E05383D7A07E
:10228000812733EEA700630403009B070E005D8FD8
:1022900023AEE6FEC106E3FFD8F08280939E1500D0
:1022A000AA9E9307850063E5FE14216FB7050080A1
:1022B000B71F00C893080FC093C5F5FF37088047C4
:1022C000370E8038FD3F17370B00872727F237037B
:1022D000807F130F0FE0216585A0C6826373D30052
:1022E000FA8214421B570701698FB3E2E200239D73
:1022F00057FE33F7B600636E0709C6826373E300C7
:10230000FA8258469BD60601E98EB3E2D200239E9C
:1023100057FEB376B70063E6060BC6826373D3003D
:10232000FA821B570701698FB3E2E200239F57FE31
:10233000A107410663EEFE0A144633F7B600636A4E
:10234000070BC6826373E300FA8258429BD60601EC
:10235000E98EB3E2D200239C57FEB376B700E3FECA
:1023600006F763F5C60B538706F01B570701698F05
:1023700053F7E700D30607E093920603144293D283
:102380000203B3E2E200239D57FE33F7B600E37683
:1023900007F7637CC709530707F09BD60601E98E50
:1023A00053F7E700530707E093120703584693D209
:1023B0000203B3E2D200239E57FEB376B700E3FEDA
:1023C00006F563F3C609538706F01B570701698FAB
:1023D00053F7E700A1074106D30607E093920603EF
:1023E00093D20203B3E2E200239B57FEE3F6FEF42E
:1023F0008280637AC707530707F053F7E700530754
:1024000007E09312070393D2020381B79BD2D60051
:1024100093F21200BB86F601BB8656009BD6D6000F
:102420009392060393D202036DBD9B52D70093F2A1
:1024300012003B07F7013B0757001B57D7009312C9
:10244000070393D2020375BD9BD2D60093F212000C
:10245000BB86F601BB8656009BD6D6009392060338
:1024600093D202037DBD9B52D70093F212003B072B
:10247000F7013B0757001B57D7009312070393D26E
:102480000203E1B58A05AA95410563E6A5028727FF
:102490008600410641052720F5FE872746FF2722B3
:1024A000F5FE872706FF2724F5FE8727C6FF272688
:1024B000F5FEE3FEA5FC82808A05AA95410563E648
:1024C000A50287278600410641052720F5FE8727BC
:1024D00046FF2722F5FE872706FF2724F5FE8727DC
:1024E000C6FF2726F5FEE3FEA5FC82808A05AA9595
:1024F000410563EAA50497370B0087A727D38347D5
:1025000016004105110653F717D05377F71027200F
:10251000E5FE8347E6FF53F717D05377F7102722DE
:10252000E5FE8347F6FF53F717D05377F7102724BC
:10253000E5FE8347C6FF53F717D05377F7102726DA
:10254000E5FEE3FEA5FA8280AA95110563E4A50ADB
:10255000530600F097370B0007A787CD97370B007E
:1025600087A6C7C88727C6008147D3F7E710D3F7E8
:10257000D7005397C7A011E75317F7A09307F00FA1
:1025800041C3230EF5FE872706008147D3F7E710E6
:10259000D3F7D7005397C7A011E75317F7A09307B6
:1025A000F00F25C7A30EF5FE872746008147D3F716
:1025B000E710D3F7D7005397C7A011E75317F7A039
:1025C0009307F00F21CB230FF5FE87278600814765
:1025D000D3F7E710D3F7D7005397C7A011E75317E6
:1025E000F7A09307F00F01CBA30FF5FE11054106ED
:1025F000E3FAA5F68280D39717C093F7F70FEDB7EC
:10260000D39717C093F7F70FADBFD39717C093F7C2
:10261000F70F49BFD39717C093F7F70F6DB78A0528
:10262000AA95410563EEA5028347160041051106F0
:10263000D3F717D02720F5FE8347E6FFD3F717D04F
:102640002722F5FE8347F6FFD3F717D02724F5FEA0
:102650008347C6FFD3F717D02726F5FEE3F6A5FC80
:102660008280AA95110563ECA508D30600F0973780
:102670000B0007A7A7B797370B0007A667BB8727ED
:10268000C6008147D3F7E7005397D7A011E7531748
:10269000F6A09307F00F35CB230EF5FE8727060033
:1026A0008147D3F7E7005397D7A011E75317F6A058
:1026B0009307F00F25C3A30EF5FE87274600814739
:1026C000D3F7E7005397D7A011E75317F6A0930766
:1026D000F00F31C7230FF5FE872786008147D3F718
:1026E000E7005397D7A011E75317F6A09307F00F11
:1026F00001CBA30FF5FE11054106E3F2A5F8828098
:10270000D39717C093F7F70FEDB7D39717C093F789
:10271000F70F59B7D39717C093F7F70F69BFD39740
:1027200017C093F7F70F7DB78A05AA95410563EAAD
:10273000A50417070B00130727248347160041053C
:1027400011068A07BA9787A707002720F5FE834757
:10275000E6FF8A07BA9787A707002722F5FE834777
:10276000F6FF8A07BA9787A707002724F5FE834755
:10277000C6FF8A07BA9787A707002726F5FEE3FE5C
:10278000A5FA82808A05AA9517070B001307C71EB2
:1027900097370B0007A787A9834716004105110645
:1027A0008A07BA9787A707002728F5FE8347E6FF21
:1027B0008A07BA9787A70700272AF5FE8347F6FFFF
:1027C0008A07BA9787A70700272CF5FE8347C6FF1D
:1027D000D3F717D0D3F7E710272EF5FEE36EB5FA3F
:1027E00082808A05AA95410563EAA50497370B0004
:1027F00087A747A403582600835646000357660060
:1028000083570600D37518D053F616D0D37617D059
:1028100053F717D0D3F5F5105376F610D3F6F6101C
:102820005377F71041052720B5FE2722C5FE272440
:10283000D5FE2726E5FE2106E3FEA5FA8280860561
:10284000AA95210563E2A50A530600F04167973770
:102850000B0007A7679E97370B0087A627997D1760
:102860008727C6008147D3F7E710D3F7D700D39661
:10287000C7A089E6D316F7A0BA87ADCE8727060092
:10288000231CF5FE8147D3F7E710D3F7D700D39683
:10289000C7A089E6D316F7A0BA87B5C28727460036
:1028A000231DF5FE8147D3F7E710D3F7D700D39662
:1028B000C7A089E6D316F7A0BA87B9C687278600CE
:1028C000231EF5FE8147D3F7E710D3F7D700D39641
:1028D000C7A089E6D316F7A0BA8781CA231FF5FEE1
:1028E00021054106E3FEA5F68280D39717C0C217E3
:1028F000C193EDB7D39717C0C217C19341B7D39710
:1029000017C0C217C19359BFD39717C0C217C1933D
:1029100075B78A05AA95410563EEA50203582600FE
:10292000835646000357660083570600537618D037
:10293000D3F616D0537717D0D3F717D02728C5FE74
:10294000272AD5FE272CE5FE272EF5FE4105210678
:10295000E3F6A5FC82808605AA95210563EAA50811
:10296000D30600F0416797370B0007A727889737F2
:102970000B0007A6678C7D178727C6008147D3F712
:10298000E700D396D7A089E6D316F6A0BA87BDC6CE
:1029900087270600231CF5FE8147D3F7E700D3966F
:1029A000D7A089E6D316F6A0BA87B1CE872746000E
:1029B000231DF5FE8147D3F7E700D396D7A089E61C
:1029C000D316F6A0BA87A9C687278600231EF5FE70
:1029D0008147D3F7E700D396D7A089E6D316F6A0B0
:1029E000BA8781CA231FF5FE21054106E3F6A5F843
:1029F0008280D39717C0C217C193EDB7D39717C082
:102A0000C217C19371B7D39717C0C217C19379BFCB
:102A1000D39717C0C217C19345BF93982500AA98B2
:102A20009306050163E3D81097370B0007A70781CA
:102A300097370B0087A7C78037E8FF0F3705807FE0
:102A4000B7050080035726009B17D700B3F707018F
:102A5000D38607F01B1707013373B700D376D7105F
:102A6000D38706E05387D7A0812733EEA70019C389
:102A70009B070E0003574600B367F30023A8F6FE3A
:102A80009B17D700B3F70701D38607F01B17070181
:102A90003373B700D376D710D38706E05387D7A018
:102AA000812733EEA70019C39B070E00035766006A
:102AB000B367F30023AAF6FE9B17D700B3F707010D
:102AC000D38607F01B1707013373B700D376D710EF
:102AD000D38706E05387D7A0812733EEA70019C319
:102AE0009B070E0003570600B367F30023ACF6FE06
:102AF0009B17D700B3F70701D38607F01B17070111
:102B00006D8FD376D7102106D38706E05383D7A0E5
:102B1000812733EEA700630403009B070E005D8F3F
:102B200023AEE6FEC106E3FFD8F08280939E150037
:102B3000AA9E9307850063E5FE14216FB705008008
:102B4000B71F00C893080FC093C5F5FF370880472B
:102B5000370E8038FD3F17270B008727276937037B
:102B6000807F130F0FE0216585A0C6826373D300B9
:102B7000FA8254421B570701698FB3E2E200239D9A
:102B800057FE33F7B600636E0709C6826373E3002E
:102B9000FA8218469BD60601E98EB3E2D200239E44
:102BA00057FEB376B70063E6060BC6826373D300A5
:102BB000FA821B570701698FB3E2E200239F57FE99
:102BC000A107410663EEFE0A544633F7B600636A76
:102BD000070BC6826373E300FA8218429BD6060194
:102BE000E98EB3E2D200239C57FEB376B700E3FE32
:102BF00006F763F5C60B538706F01B570701698F6D
:102C000053F7E700D30607E093920603544293D2AA
:102C10000203B3E2E200239D57FE33F7B600E376EA
:102C200007F7637CC709530707F09BD60601E98EB7
:102C300053F7E700530707E093120703184693D2B0
:102C40000203B3E2D200239E57FEB376B700E3FE41
:102C500006F563F3C609538706F01B570701698F12
:102C600053F7E700A1074106D30607E09392060356
:102C700093D20203B3E2E200239B57FEE3F6FEF495
:102C80008280637AC707530707F053F7E7005307BB
:102C900007E09312070393D2020381B79BD2D600B9
:102CA00093F21200BB86F601BB8656009BD6D60077
:102CB0009392060393D202036DBD9B52D70093F209
:102CC00012003B07F7013B0757001B57D700931231
:102CD000070393D2020375BD9BD2D60093F2120074
:102CE000BB86F601BB8656009BD6D60093920603A0
:102CF00093D202037DBD9B52D70093F212003B0793
:102D0000F7013B0757001B57D7009312070393D2D5
:102D10000203E1B58A05AA95410563E6A502872766
:102D20004600410641052720F5FE872786FF27221A
:102D3000F5FE8727C6FF2724F5FE872706FF2726EF
:102D4000F5FEE3FEA5FC82808A05AA95410563E6AF
:102D5000A5028727C600410641052720F5FE8727E3
:102D600006FF2722F5FE872746FF2724F5FE872743
:102D700086FF2726F5FEE3FEA5FC82808A05AA953C
:102D8000410563EAA50497270B0087A7274A8347D5
:102D900036004105110653F717D05377F710272057
:102DA000E5FE8347E6FF53F717D05377F710272246
:102DB000E5FE8347D6FF53F717D05377F710272444
:102DC000E5FE8347C6FF53F717D05377F710272642
:102DD000E5FEE3FEA5FA8280AA95110563E4A50A43
:102DE000530600F097270B0007A7874497270B008F
:102DF00087A6C73F8727C6008147D3F7E710D3F7D9
:102E0000D7005397C7A011E75317F7A09307F00F08
:102E100041C3230EF5FE872786008147D3F7E710CD
:102E2000D3F7D7005397C7A011E75317F7A093071D
:102E3000F00F25C7A30EF5FE872746008147D3F77D
:102E4000E710D3F7D7005397C7A011E75317F7A0A0
:102E50009307F00F21CB230FF5FE8727060081474C
:102E6000D3F7E710D3F7D7005397C7A011E753174D
:102E7000F7A09307F00F01CBA30FF5FE1105410654
:102E8000E3FAA5F68280D39717C093F7F70FEDB753
:102E9000D39717C093F7F70FADBFD39717C093F72A
:102EA000F70F49BFD39717C093F7F70F6DB78A0590
:102EB000AA95410563EEA502834736004105110638
:102EC000D3F717D02720F5FE8347E6FFD3F717D0B7
:102ED0002722F5FE8347D6FFD3F717D02724F5FE28
:102EE0008347C6FFD3F717D02726F5FEE3F6A5FCE8
:102EF0008280AA95110563ECA508D30600F09727F8
:102F00000B0007A7A72E97270B0007A66732872776
:102F1000C6008147D3F7E7005397D7A011E75317AF
:102F2000F6A09307F00F35CB230EF5FE872786001A
:102F30008147D3F7E7005397D7A011E75317F6A0BF
:102F40009307F00F25C3A30EF5FE872746008147A0
:102F5000D3F7E7005397D7A011E75317F6A09307CD
:102F6000F00F31C7230FF5FE872706008147D3F7FF
:102F7000E7005397D7A011E75317F6A09307F00F78
:102F800001CBA30FF5FE11054106E3F2A5F88280FF
:102F9000D39717C093F7F70FEDB7D39717C093F7F1
:102FA000F70F59B7D39717C093F7F70F69BFD397A8
:102FB00017C093F7F70F7DB78A05AA95410563EA15
:102FC000A50417070B001307279B8347360041050D
:102FD00011068A07BA9787A707002720F5FE8347BF
:102FE000E6FF8A07BA9787A707002722F5FE8347DF
:102FF000D6FF8A07BA9787A707002724F5FE8347DD
:10300000C6FF8A07BA9787A707002726F5FEE3FEC3
:10301000A5FA82808A05AA9517070B001307C795A2
:1030200097270B0007A78720834736004105110625
:103030008A07BA9787A707002728F5FE8347E6FF88
:103040008A07BA9787A70700272AF5FE8347D6FF86
:103050008A07BA9787A70700272CF5FE8347C6FF84
:10306000D3F717D0D3F7E710272EF5FEE36EB5FAA6
:1030700082808A05AA95410563EAA50497270B007B
:1030800087A7471B03586600835646000357260050
:1030900083570600D37518D053F616D0D37617D0C1
:1030A00053F717D0D3F5F5105376F610D3F6F61084
:1030B0005377F71041052720B5FE2722C5FE2724A8
:1030C000D5FE2726E5FE2106E3FEA5FA82808605C9
:1030D000AA95210563E2A50A530600F041679727E8
:1030E0000B0007A7671597270B0087A627107D17EA
:1030F0008727C6008147D3F7E710D3F7D700D396C9
:10310000C7A089E6D316F7A0BA87ADCE8727860079
:10311000231CF5FE8147D3F7E710D3F7D700D396EA
:10312000C7A089E6D316F7A0BA87B5C2872746009D
:10313000231DF5FE8147D3F7E710D3F7D700D396C9
:10314000C7A089E6D316F7A0BA87B9C687270600B5
:10315000231EF5FE8147D3F7E710D3F7D700D396A8
:10316000C7A089E6D316F7A0BA8781CA231FF5FE48
:1031700021054106E3FEA5F68280D39717C0C2174A
:10318000C193EDB7D39717C0C217C19341B7D39777
:1031900017C0C217C19359BFD39717C0C217C193A5
:1031A00075B78A05AA95410563EEA5020358660026
:1031B000835646000357260083570600537618D0DF
:1031C000D3F616D0537717D0D3F717D02728C5FEDC
:1031D000272AD5FE272CE5FE272EF5FE41052106E0
:1031E000E3F6A5FC82808605AA95210563EAA50879
:1031F000D30600F0416797270B0007A727FF972703
:103200000B0007A667037D178727C6008147D3F702
:10321000E700D396D7A089E6D316F6A0BA87BDC635
:1032200087278600231CF5FE8147D3F7E700D39656
:10323000D7A089E6D316F6A0BA87B1CE8727460075
:10324000231DF5FE8147D3F7E700D396D7A089E683
:10325000D316F6A0BA87A9C687270600231EF5FE57
:103260008147D3F7E700D396D7A089E6D316F6A017
:10327000BA8781CA231FF5FE21054106E3F6A5F8AA
:103280008280D39717C0C217C193EDB7D39717C0E9
:10329000C217C19371B7D39717C0C217C19379BF33
:1032A000D39717C0C217C19345BF93982500AA981A
:1032B0009306050163E3D81097270B0007A707F8CB
:1032C00097270B0087A7C7F737E8FF0F3705807FE1
:1032D000B7050080035766009B17D700B3F70701B7
:1032E000D38607F01B1707013373B700D376D710C7
:1032F000D38706E05387D7A0812733EEA70019C3F1
:103300009B070E0003574600B367F30023A8F6FEA1
:103310009B17D700B3F70701D38607F01B170701E8
:103320003373B700D376D710D38706E05387D7A07F
:10333000812733EEA70019C39B070E000357260011
:10334000B367F30023AAF6FE9B17D700B3F7070174
:10335000D38607F01B1707013373B700D376D71056
:10336000D38706E05387D7A0812733EEA70019C380
:103370009B070E0003570600B367F30023ACF6FE6D
:103380009B17D700B3F70701D38607F01B17070178
:103390006D8FD376D7102106D38706E05383D7A04D
:1033A000812733EEA700630403009B070E005D8FA7
:1033B00023AEE6FEC106E3FFD8F08280939E15009F
:1033C000AA9E9307850063E5FE14216FB705008070
:1033D000B71F00C893080FC093C5F5FF3708804793
:1033E000370E8038FD3F17270B00872727E037036C
:1033F000807F130F0FE0216585A0C6826373D30021
:10340000FA8254421B570701698FB3E2E200239D01
:1034100057FE33F7B600636E0709C6826373E30095
:10342000FA8218429BD60601E98EB3E2D200239EAF
:1034300057FEB376B70063E6060BC6826373D3000C
:10344000FA821B570701698FB3E2E200239F57FE00
:10345000A107410663EEFE0A544633F7B600636ADD
:10346000070BC6826373E300FA8218469BD60601F7
:10347000E98EB3E2D200239C57FEB376B700E3FE99
:1034800006F763F5C60B538706F01B570701698FD4
:1034900053F7E700D30607E093920603544293D212
:1034A0000203B3E2E200239D57FE33F7B600E37652
:1034B00007F7637CC709530707F09BD60601E98E1F
:1034C00053F7E700530707E093120703184293D21C
:1034D0000203B3E2D200239E57FEB376B700E3FEA9
:1034E00006F563F3C609538706F01B570701698F7A
:1034F00053F7E700A1074106D30607E093920603BE
:1035000093D20203B3E2E200239B57FEE3F6FEF4FC
:103510008280637AC707530707F053F7E700530722
:1035200007E09312070393D2020381B79BD2D60020
:1035300093F21200BB86F601BB8656009BD6D600DE
:103540009392060393D202036DBD9B52D70093F270
:1035500012003B07F7013B0757001B57D700931298
:10356000070393D2020375BD9BD2D60093F21200DB
:10357000BB86F601BB8656009BD6D6009392060307
:1035800093D202037DBD9B52D70093F212003B07FA
:10359000F7013B0757001B57D7009312070393D23D
:1035A0000203E1B58A05AA95410563E6A5028727CE
:1035B000C600410641052720F5FE872786FF272202
:1035C000F5FE872746FF2724F5FE872706FF2726D7
:1035D000F5FEE3FEA5FC82808A05AA95410563E617
:1035E000A5028727C600410641052720F5FE87274B
:1035F00086FF2722F5FE872746FF2724F5FE87272B
:1036000006FF2726F5FEE3FEA5FC82808A05AA9523
:103610001308050163E605073287C28797260B006A
:1036200087A7C6C083461700C107110753F716D0F6
:103630005377F71027A0E7FE8346C7FF53F716D04E
:103640005377F71027A2E7FE8346F7FF53F716D00C
:103650005377F71027A4E7FE8346E7FF53F716D00A
:103660005377F71027A6E7FEE3FEF5FA3385A5406A
:1036700041151181930715008A0712053E96429560
:10368000637AB50297270B0087A747BA83471600CE
:103690002105090653F717D05377F710272CE5FEBD
:1036A0008347E6FF53F717D05377F710272EE5FE31
:1036B000E36EB5FC82803308B50093084500636073
:1036C000180D530600F0C687328797260B0087A790
:1036D00026B697260B0087A666B1072747008146C6
:1036E0005377F7105377D7005315C7A019E55395B3
:1036F000E7A09306F00F63060510238ED7FE072779
:10370000070081465377F7105377D7005315C7A0AA
:1037100011E55395E7A09306F00F6DC9A38ED7FE70
:103720000727C70081465377F7105377D700531503
:10373000C7A011E55395E7A09306F00F69CD238F3D
:10374000D7FE0727870081465377F7105377D700B6
:103750005315C7A011E55395E7A09306F00F49CD87
:10376000A38FD7FE91074107E379F8F6F115898118
:103770009387150092078A053E963385B8006372D9
:103780000507530600F097270B0087A767AA97271E
:103790000B0087A6A7A50727460001478147537757
:1037A000F7105377D700D316C7A091E6D396E7A0BA
:1037B0001307F00F8DCE2300E50007270600210632
:1037C0005377F7105377D7005317C7A011E75397D4
:1037D000E7A09307F00F19C7A300F5000905E36CF4
:1037E00005FB8280D31717C093F7F70FF5B7531770
:1037F00017C01377F70FC1B7D31617C093F6F60F9C
:1038000085B7D31617C093F6F60FC5BDD31617C0EC
:1038100093F6F60F21B7D31617C093F6F60F05B738
:103820008A05AA951308050163EA05053287C28750
:1038300083461700C1071107D3F716D027A0F7FE5C
:103840008346C7FFD3F716D027A2F7FE8346F7FFBC
:10385000D3F716D027A4F7FE8346E7FFD3F716D099
:1038600027A6F7FEE3F6F5FC3385A5404115118147
:10387000930715008A0712053E9642956372B502BA
:103880008347160021050906D3F717D0272CF5FE2C
:103890008347E6FFD3F717D0272EF5FEE362B5FE88
:1038A00082803308B500930845006367180BD30680
:1038B00000F0C687328797260B0087A726939726A6
:1038C0000B0007A6E6960727470081465377F700C7
:1038D0005315D7A011E55315E6A09306F00F7DC947
:1038E000238ED7FE0727070081465377F70053152D
:1038F000D7A011E55315E6A09306F00F6DC1A38E76
:10390000D7FE0727C70081465377F7005315D7A086
:1039100011E55315E6A09306F00F79C5238FD7FE66
:103920000727870081465377F7005315D7A011E585
:103930005315E6A09306F00F49C9A38FD7FE910750
:103940004107E372F8F8F115898193871500920712
:103950008A053E963385B800637E0505D30600F0E0
:1039600097270B0087A7878897270B0007A6478C08
:1039700007274600014781475377F700D316D7A0A2
:1039800091E6D316E6A01307F00F9DCA2300E500C9
:103990000727060021065377F7005317D7A011E732
:1039A0005317E6A09307F00F19C7A300F500090508
:1039B000E36005FD8280D31717C093F7F70FF5B7C3
:1039C000531717C01377F70FD1B7D31617C093F655
:1039D000F60FA5B7D31617C093F6F60F11B7D31687
:1039E00017C093F6F60F21BFD31617C093F6F60F44
:1039F00035B7139825002A989308050163661807C0
:103A0000B286C68717F70A00130707F783C51600A3
:103A1000C10791068A05BA9587A7050027A0F7FE7A
:103A200083C5C6FF8A05BA9587A7050027A2F7FEBA
:103A300083C5F6FF8A05BA9587A7050027A4F7FE78
:103A400083C5E6FF8A05BA9587A7050027A6F7FE76
:103A5000E37EF8FA3305A84041151181930715005C
:103A60008A0712053E96469517F70A001307C7F016
:103A70006376050383471600210509068A07BA976E
:103A800087A70700272CF5FE8347E6FF8A07BA972A
:103A900087A70700272EF5FEE36E05FD82808A05C5
:103AA00013080501AA95C28763EC0507328797F8CA
:103AB0000A00938868EC97160B0007A726778346C1
:103AC0001700C10711078A06C69687A7060027A018
:103AD000F7FE8346C7FFD3F716D0D3F7E71027A228
:103AE000F7FE8346F7FF8A06C69687A7060027A437
:103AF000F7FE8346E7FFD3F716D0D3F7E71027A6E4
:103B0000F7FEE3FEF5FA3385A540411511819307D1
:103B1000150013972700120592073A96C29742950F
:103B20006374B50217170B008727C77127A8F7FE24
:103B30000347060097160B0007A7466FD37717D0E9
:103B4000D3F7E71027AAF7FE82808A05AA95130EFD
:103B5000050163E6C5073287F28797160B0087A732
:103B6000666D035327008358070003586700835688
:103B70004700D37513D053F618D0D37618D053F727
:103B800016D0D3F5F5105376F610D3F6F61053771A
:103B9000F710C10727A0B7FE27A2C7FE27A4D7FEAC
:103BA00027A6E7FE2107E3FEF5FA3385A540411578
:103BB0001181930715008E0712053E967295637A60
:103BC000B50297170B0087A7E766035726008357B0
:103BD00006002105D37617D053F717D01106D3F678
:103BE000F6105377F710272CD5FE272EE5FEE36E4F
:103BF000B5FC828093961500AA961303850063E6B0
:103C0000660C530600F041689A87328797150B00BF
:103C100087A7856297150B0087A6455D7D18072746
:103C2000470081455377F7105377D700D318C7A0C3
:103C300063970800D398E7A0C285638A0810072716
:103C40000700239CB7FE81455377F7105377D700C1
:103C5000D318C7A063970800D398E7A0C285638DE7
:103C6000080E0727C700239DB7FE81455377F7103D
:103C70005377D700D318C7A063970800D398E7A05D
:103C8000C2856380080E07278700239EB7FE814503
:103C90005377F7105377D700D318C7A0639708005E
:103CA000D398E7A0C285638F0808239FB7FEA107BA
:103CB0004107E3F6F6F63385A64061150D819307BB
:103CC000150092070E053E961A956372D5065306A7
:103CD00000F0416897170B0087A7075697170B004E
:103CE00087A6C7507D1807274600014781475377AD
:103CF000F7105377D700D315C7A089E5D395E7A070
:103D0000428785CD072706002310E500210653775B
:103D1000F7105377D7005317C7A009E75397E7A0C9
:103D2000C28719C72311F5001105E36ED5FA828009
:103D3000D31717C0C217C193F5B7531717C042174F
:103D40004193C9B7D31517C0C215C191B9BFD315D7
:103D500017C0C215C191E5B5D31517C0C215C191E1
:103D600009B7D31517C0C215C19131BF8A05AA95ED
:103D7000130E050163EAC5053287F2870353270056
:103D8000835807000358670083564700537613D0C3
:103D9000D3F618D0537718D0D3F716D027A8C7FE7C
:103DA00027AAD7FE27ACE7FE27AEF7FEC1072107FB
:103DB000E3F6F5FC3385A540411511819307150005
:103DC0008E0712053E9672956372B5020357260060
:103DD000835706002105537717D0D3F717D0110664
:103DE000272CE5FE272EF5FEE362B5FE8280939632
:103DF0001500AA961303850063EE660AD30600F049
:103E000041689A87328797150B0087A7253E97153B
:103E10000B0007A665427D180727470081455377A9
:103E2000F700D318D7A063970800D318E6A0C2857F
:103E30006380081007270700239CB7FE814553774E
:103E4000F700D318D7A063970800D318E6A0C2855F
:103E50006385080E0727C700239DB7FE814553776A
:103E6000F700D318D7A063970800D318E6A0C2853F
:103E7000638A080C07278700239EB7FE8145537786
:103E8000F700D318D7A063970800D318E6A0C2851F
:103E9000638B0808239FB7FEA1074107E3FEF6F6F0
:103EA0003385A64061150D819307150092070E0515
:103EB0003E961A95637ED504D30600F041689717A5
:103EC0000B0087A7A73297170B0007A6E7367D18C8
:103ED00007274600014781475377F700D315D7A03E
:103EE00089E5D315E6A0428795C907270600231068
:103EF000E50021065377F7005317D7A009E75317BA
:103F0000E6A0C28719C72311F5001105E362D5FCAD
:103F10008280D31717C0C217C193F5B7531717C0C4
:103F200042174193D9B7D31517C0C215C1919DB798
:103F3000D31517C0C215C191F5BDD31517C0C21551
:103F4000C19109BFD31517C0C215C19125B78A0504
:103F5000B306B500930E050163EFD611328876855E
:103F600097170B0007A7872D97170B0087A7472DDB
:103F700037EEFF0F3703807FB70800800357280014
:103F80009B17D700B3F7C701D38607F01B170701AC
:103F9000337F1701D376D710D38706E05387D7A096
:103FA0008127B3EF670019C39B870F0003570800F1
:103FB000B367FF002328F5FE9B17D700B3F7C701AF
:103FC000D38607F01B170701337F1701D376D7106D
:103FD000D38706E05387D7A08127B3EF670019C3C3
:103FE0009B870F0003576800B367FF00232AF5FE85
:103FF0009B17D700B3F7C701D38607F01B1707013C
:10400000337F1701D376D710D38706E05387D7A025
:104010008127B3EF670019C39B870F000357480040
:10402000B367FF00232CF5FE9B17D700B3F7C7013A
:10403000D38607F01B17070133771701D376D71004
:104040002108D38706E0538FD7A08127B3EF6700FD
:1040500063040F009B870F005D8F232EE5FE410553
:10406000E3FEA6F0C1159181938715008E07920596
:104070003E963385BE006378D50897170B0007A7D7
:10408000E71B97170B0087A7A71B37E3FF0FB7089E
:10409000807F37080080035726009B17D700B3F7AF
:1040A0006700D38607F01B170701B3750701D376A6
:1040B000D710D38706E05387D7A0812733EE1701A7
:1040C00019C39B070E0003570600CD8F1CC19B1719
:1040D000D700B3F76700D38607F01B1707013377C4
:1040E0000701D376D7101106D38706E0D385D7A072
:1040F000812733EE170199C19B070E005D8F58C1D0
:104100002105E36AD5F882804111860522E426E084
:10411000AA951304850063E48516A162B7080080A0
:10412000B71300C8938E02C0A287328893C8F8FFE5
:10413000370E8047B70F8038FD3317170B008727DE
:10414000E70A370F807F938202E0216395A0F6840F
:104150006373DF0096848326C8001B5707013377FB
:104160006700D98C239D97FE33F716016361C70B57
:10417000F6846373EF009684032788009BD60601BC
:10418000B3F66600D58C239E97FEB376170163E8DD
:10419000C60BF6846373DF0096841B5707013377E1
:1041A0006700D98C239F97FEA107410863EFF50AAA
:1041B0008326480033F71601636FC717F6846373CD
:1041C000EF009684032708009BD60601B3F666002D
:1041D000D58C239C97FEB3761701E3FAC6F763F0FC
:1041E000F61B538706F01B5707013377670053F719
:1041F000E700D30607E0939406038326C800C19026
:10420000D98C239D97FE33F71601E373C7F76374C8
:10421000F719530707F09BD60601B3F6660053F76C
:10422000E700530707E09314070303278800C190B2
:10423000D58C239E97FEB3761701E3FCC6F563F891
:10424000F611538706F01B5707013377670053F7C2
:10425000E700A1074108D30607E093940603C19045
:10426000D98C239B97FEE3F5F5F43385A5406115C2
:104270000D819307150092070E053E9622956378EF
:10428000B50A216FB7060080B71F00C813030FC01F
:1042900093C6F6FFB7088047B70E8038FD3F9717E3
:1042A0000B0087A7A7F4370E807F130F0FE021685C
:1042B0000DA09A826373EE00FA829BD70701B3F7D1
:1042C0000701B3E2F20023115500110521066370C6
:1042D000B5065842B377D70063EB170D9A82637324
:1042E000FE00FA821C421B57070133770701B3E235
:1042F000E2002310550033F7D700E37C17FB63750A
:10430000D70D530707F09BD70701B3F7070153F702
:10431000E70011052106530707E09312070393D224
:104320000203B3E2F200231F55FEE364B5FA2264F0
:104330008264410182806378F703530707F053F7E3
:10434000E700530707E093140703C190A5BD9BD472
:10435000D6008588BB867600A59E9BD6D600939412
:104360000603C1901DBD9B54D70085883B0777008D
:10437000259F1B57D70093140703C190A1B59BD469
:10438000D6008588BB867600A59E9BD6D6009394E2
:104390000603C190C9B39B54D70085883B077700BB
:1043A000259F1B57D70093140703C190F1B363FCFB
:1043B000D703538707F053F7E700D30707E093923B
:1043C000070393D2020339BF9B52D70093F2120026
:1043D0003B07F7013B0757001B57D7009312070312
:1043E00093D20203D9BD9BD2D70093F21200BB87B0
:1043F000F701BB8757009BD7D7009392070393D24F
:104400000203CDB58A05AA959306050163E2D5049A
:104410003287B687872747004107C10727A0F7FEE5
:10442000872707FF27A2F7FE8727C7FF27A4F7FEE6
:10443000872787FF27A6F7FEE3FEF5FC3385A54017
:104440004115118193071500920712053E96369586
:10445000637EB5008727460021062105272CF5FE3F
:10446000872786FF272EF5FEE366B5FE82808A0544
:10447000AA959306050163E2D504B687328787279C
:1044800047004107C10727A0F7FE872707FF27A29C
:10449000F7FE8727C7FF27A4F7FE872787FF27A6F2
:1044A000F7FEE3FEF5FC3385A54041151181930726
:1044B0001500920712053E963695637EB500872754
:1044C000460021062105272CF5FE872786FF272E8B
:1044D000F5FEE366B5FE82809BD7F5419BD7E701E9
:1044E000AD9F9BD727401B9737001D9F0A072A9730
:1044F0008A05B307B74063F2E70487A7C70007A69A
:10450000070087A6470007A787005370F61053F5EA
:10451000F610D375F7102720C5002722D5002724D1
:10452000E5002726F50027280500272AA500272CC7
:10453000B500C1077105E3E2E7FC82809BD7F50176
:10454000AD9F1BD71740F99BB99F8A073307F5002A
:104550008A05B307B74063F2E70287A7070007A7FA
:1045600047003105272AF5FED3F7E710272CE5FE93
:10457000A107272EF5FEE3E2E7FE82808A05AA95D1
:10458000AA8717170B00072627CC17170B008725BC
:1045900027C68727C5005397C7A005C7072705006B
:1045A0007105C10727A8E7FE072785FE27AAE7FEB2
:1045B0000727C5FE27AEF7FE27ACE7FEE3EBB7FC07
:1045C0008280D3F6F51807270501C10771055377D7
:1045D000D71027A8E7FE072785FF5377D71027AA0C
:1045E000E7FE0727C5FF27AEF7FE5377D71027ACA6
:1045F000E7FEE3E0B7FA82808A05AA95AA87171733
:104600000B00872667C487274500072705005387C7
:10461000F6A027A0E70011CF0727850027A2F70003
:10462000A107D377F718310527ACF7FEE3EDB7FC08
:10463000828027A2F700A1073105E3E6B7FC82805C
:104640008A05AA956379B5020726C5008726050065
:104650000727450087278500D3F6C6105377C71074
:10466000D3F7C71041052728D5FE272AE5FE272CBA
:10467000F5FEE36BB5FC82808A05AA95637DB500E3
:1046800087270500072745002105D3F7E710272CCA
:10469000F5FEE367B5FE82808A05AA9597170B00A1
:1046A00087A587BA97170B0007A587B48727C5008A
:1046B000D387F5A08DC7D377F51807260500872681
:1046C0004500072785005376F610D3F6F61053778A
:1046D000F7102720C5002722D5002724E500410533
:1046E000E366B5FC82808A05AA9597170B0087A61A
:1046F000A7B587274500D387F6A099C707270500E8
:104700005377F7182720E5002105E364B5FE828082
:104710008A05AA95938705FD63E6A7040726050089
:104720008726C50007278501872745028720850042
:1047300007204501072505028725C502272015000A
:1047400027260500272CA5002722B5022724C5000F
:10475000272AD5002720E5022726F50213050503A1
:10476000E3FEA7FA637AB5060727050087278500C9
:104770009307C5002724E5002720F50063FEB70452
:104780000727C5008727450193078501272AE500EC
:104790002726F50063F2B70407278501872705025E
:1047A000930745022720E502272CF50063F6B702A0
:1047B000072745028727C502930705032726E50239
:1047C0002722F50263FAB700072705038727850329
:1047D000272CE5022728F5028280139805029355BD
:1047E000E8018548AA9513982700639317039C4214
:1047F0000727070011058A07B29787A70700429786
:10480000A106D3F7E710272EF5FEE362B5FE8280FE
:104810009C420727070011058A07B29787A7070060
:104820004297A106D3F7E710272EF5FEE362B5FE07
:104830008280139805029355E801AA958A0703A878
:10484000060007260700872647000A083298072730
:1048500008008727480011055377C710D3F7D710F2
:104860003E97A106D3F7E700272EF5FEE369B5FCD6
:104870008280139805029355E801AA958A0703A838
:10488000060087260700872547000A083298072771
:1048900008008727480007268700D376D71053F7EC
:1048A000B7108727880011053E97D3F7C7105377B5
:1048B000D700A106D3F7E700272EF5FEE361B5FC8C
:1048C0008280139805029355E801AA958A0703A8E8
:1048D000060087200700072087000A08329807256E
:1048E00047008725C7008727080007268800072775
:1048F00048008726C800D3F7171053760610537761
:10490000A710D3F6B61011053E97D3F7C700A1063E
:104910005377D700D3F7E700272EF5FEE369B5FA02
:104920008280139805029355E801AA958A0703A887
:10493000060007260700872607010A08329807277E
:1049400008008727080187208700D375C710D3F791
:10495000D710072047000725C7000726880007272C
:1049600048008726C800D3F7B70053761610537750
:104970000710D3F6A61011053E97D3F7C700A1067E
:104980005377D700D3F7E700272EF5FEE361B5FA9A
:104990008280139805029355E801AA958A0703A817
:1049A000060087200701072047010A0832980725DB
:1049B0000700872547000726080087264800872725
:1049C0000801072748015375A610D3F5B610D3F791
:1049D000171053770710872087000720C700072686
:1049E00088008726C800D3F7A700537616105377A0
:1049F000B700D3F6061011053E97D3F7C700A106FE
:104A00005377D700D3F7E700272EF5FEE369B5F813
:104A10008280139805029355E801AA958A0703A896
:104A2000060087204701072007000A0832988722DE
:104A300047000722870087210701072187010726F2
:104A40004800872508000725880087270801872652
:104A5000880107274801D372561053F00510537789
:104A6000171053754510D3F73710D3F6261087204B
:104A7000C7000726C80053775700D3F70700D3F6BF
:104A8000A6005376161011053E97A106D3F7D7005E
:104A90005377C700D3F7E700272EF5FEE361B5F89B
:104AA0008280139805029355E801AA958A0703A806
:104AB000060087280700072847000A08329887233E
:104AC00087000723C7008722070107228701872164
:104AD00047010721C7018720080007254800072054
:104AE00088008725C800872708010726880107272F
:104AF00048018726C801D3F0101153750511537072
:104B00007010D3F56510D3F75710537646105377CE
:104B10003710D3F626101105D3F717005376060089
:104B20005377A700D3F6B6003E97A106D3F7C70088
:104B30005377D700D3F7E700272EF5FEE369B5F6E4
:104B40008280139805029355E801AA958A0703A865
:104B5000060007260700872607010A08329807275C
:104B6000080087270801872847005371C710D3F52D
:104B7000D710072887008723C700072387018722CC
:104B80000702072247018721C70107204800872025
:104B900088000725C80087278801072608020727FD
:104BA00048018726C80153701011D3F000115375C6
:104BB0007510D3F52500D3F7671053765610537749
:104BC0004710D3F636101105D3F717005376B60009
:104BD00053770700D3F6A6003E97A106D3F7C70088
:104BE0005377D700D3F7E700272EF5FEE361B5F63C
:104BF0008280139805029355E801AA958A0703A8B5
:104C0000060087200700072047000A08329807257A
:104C10000701872547010726080087264800072740
:104C2000080187274801D371161053F106105375F8
:104C3000A710D3F5B710872887000728C700872358
:104C40008701072307028722C7010722470287201F
:104C500088000720C8008727880107260802072741
:104C6000C80187264802D3F0101153700011537504
:104C70003500D3F52500D3F77710537666105377B8
:104C80005710D3F646101105D3F717005376A60038
:104C900053770700D3F6B6003E97A106D3F7C700B7
:104CA0005377D700D3F7E700272EF5FEE369B5F475
:104CB0008280139805029355E801AA958A0703A8F4
:104CC000060087224701872087010A0832980722B9
:104CD00007008721470007218700072007010725D4
:104CE00008008725480007268800872608018727AF
:104CF00048010727880153724510D3F135105375C9
:104D00001710D3F557105371261053F0061087284B
:104D1000C70007280702872387020723C7018722C6
:104D200047028720C800872708020726880207272E
:104D3000C80187264802D3F0101153704000D3F504
:104D4000350053752500D3F7071153767610537746
:104D50006710D3F656101105D3F707005376A60057
:104D600053771700D3F6B6003E97A106D3F7C700D6
:104D70005377D700D3F7E700272EF5FEE361B5F4AC
:104D80008280139805029355E801AA958A0703A823
:104D9000060087280701072847010A083298872359
:104DA00087010723C70187220700072247008721C1
:104DB00087000721C7008720080007204800072533
:104DC00088008725C800072608010727480187268D
:104DD00088018727C801D3F2501053724010D37056
:104DE000161153F07610D371351053F12510537509
:104DF0000711D3F567108728070207288702872342
:104E000047020723C70287270802072688020727C9
:104E100048028726C802D3F05000537545005370EE
:104E20003000D3F52500D3F71711537606115377C9
:104E30007710D3F666101105D3F7170053760600E6
:104E40005377A700D3F6B6003E97A106D3F7C70065
:104E50005377D700D3F7E700272EF5FEE369B5F2C5
:104E60008280139805029355E801B308B5001393A7
:104E700027008C42872507000725470093972500C8
:104E8000B29787A7070007A7470007A687008720D4
:104E9000870087A6C7000720C70003A84600D3F5F0
:104EA000B7105375A710D370161053F006103B08B7
:104EB000B8401B582840BA8507A6070187A20501FC
:104EC00087A6470107A2450107A7870187A185019A
:104ED00087A7C70107A1C50153765610D3F6461020
:104EE00053773710D3F727107D38D3F5C5005375A6
:104EF000D500D3F0E0005370F000C105C107E34DC9
:104F000000FBD3F715005375050011051A97A1068C
:104F1000D3F7A700272EF5FEE36D15F582801398D1
:104F200005029355E801B30EB500139F27009C427C
:104F3000072007008725470093982700B29887A687
:104F4000080087A7480007A788000725870007A64D
:104F5000C8008720C70003A3460053F00610D3F50E
:104F6000B7105375A710D37016103B03F3407D3371
:104F70001B5E23407283BA857288C68707A6070125
:104F800087A2050187A6470107A2450107A7870158
:104F900087A1850187A7C70107A1C50153765610D0
:104FA000D3F6461053773710D3F727107D38537058
:104FB000C000D3F5D5005375E500D3F0F000C1056E
:104FC000C107E34D00FBC1476359C0017D3393170F
:104FD000030213D3C70193070301B305F700BE987B
:104FE00007A7080187A60501D3F715001105537718
:104FF000D7107A97A106537707005377A700D37786
:10500000F700272EF5FEE364D5F38280139805029E
:105010009355E801B30EB500139F27009C428720EB
:1050200007000720470093982700B29807A60800BA
:1050300087A6480007A788000725870087A7C8001C
:105040008725C70003A34600D370161053F006103F
:105050005375A710D3F5B7103B03F34079331B5EAC
:1050600023407283BA857288C68707A6070187A284
:10507000050187A6470107A2450107A7870187A168
:10508000850187A7C70107A1C50153765610D3F63E
:10509000461053773710D3F727107D38D3F0C00070
:1050A0005370D0005375E500D3F5F500C105C10775
:1050B000E34D00FBC1476359C0017D3393170302E1
:1050C00013D3C70193070301B305F700BE9887A761
:1050D000080107A6050107A7480187A64501D3F7E0
:1050E000C71011055377D7107A97A106D3F7170089
:1050F00053770700D3F7A7005377B700D3F7E7003C
:10510000272EF5FEE36CD5F18280139805029355A6
:10511000E801B30EB500139F27009C4287200700CB
:105120000725470093982700B29807A6080007A70D
:10513000480087A688000720870087A7C800872522
:10514000C70003A34600D37016105375A71053F081
:105150000610D3F5B7103B03F34075331B5E2340B5
:105160007283BA857288C68707A6070187A20501E0
:1051700087A6470107A2450107A7870187A18501E7
:1051800087A7C70107A1C50153765610D3F646106D
:1051900053773710D3F727107D38D3F0C0005375FD
:1051A000D5005370E000D3F5F500C105C107E34D0C
:1051B00000FBC1456359C0017D339317030213D32C
:1051C000C70193050301B307B700AE9887A708018D
:1051D00087A1070187A6880107A1870107A74801C2
:1051E00007A64701D3F73710D3F626105377C71019
:1051F00011057A97D3F71700D3F606005377A70067
:10520000A106D3F7D7005377B700D3F7E700272ECF
:10521000F5FEE364D5F182809B9515008215F98136
:105220008548AA9513982700639B17039C428726FD
:10523000070021059B9717008A07B29707A7470029
:1052400087A70700429753F7E610D3F7D710A106B8
:10525000272EE5FE272CF5FEE36AB5FC82809C42F2
:105260008726070021059B9717008A07B29707A793
:10527000470087A70700429753F7E610D3F7D710E8
:10528000A106272EE5FE272CF5FEE36AB5FC8280F9
:105290009B9515008215F9813308B5008A078C4269
:1052A00087260700872747009B9515008A05B2953A
:1052B00007A6050007A5450007A7C50087A5850027
:1052C00053F6C61053F7E710D3F6A610D3F7B7106E
:1052D00021053E97A1065377D700D3F7C700272EA5
:1052E000E5FE272CF5FEE36C05FB82809B951500FF
:1052F0008215F9813308B5008A078C42872607009A
:10530000872787009B9515008A05B29507A605009B
:1053100007A7050107A0450187A5450053F5C6105D
:1053200053F6E710D3F5B61053F7071087A6C5005C
:105330008727470007A085005376A600D3F6D7102D
:105340005377B700D3F7071021053E97A10653F70F
:10535000E600D3F7C700272EE5FE272CF5FEE36E07
:1053600005F982809B9515008215F9813308B500F7
:105370008A078C4287270700872647009B951500E0
:105380008A05B295072587008725C70007A745002E
:1053900007A6C50087A0450107A0C50187A2050093
:1053A00007A2050187A1850007A1850153F7E71032
:1053B00053F6C610D370151053F00510D3F75710DD
:1053C00053754510D3F63610D3F5251053771700D3
:1053D00053760600D3F7A7002105D3F6B6003E9713
:1053E0005377C700A106D3F7D700272EE5FE272C59
:1053F000F5FEE36005F982809B9515008215F98121
:105400003308B5008A078C428726070087270701E3
:105410009B9515008A05B29507A6050087A545004E
:1054200007A7450207A50502D3F1C610D3F0B610B1
:10543000D3F5E710D3F7A71087264700072087008A
:105440000725C70007A6C50007A7450107A1C50195
:1054500007A3050187A2850007A2850153F6C610A0
:105460005377E01053712510D3F51500D3F73700AB
:1054700053706010D3F65610537545105377B7002C
:1054800053762600D3F707002105D3F6A6003E97F2
:105490005377C700A106D3F7D700272EE5FE272CA8
:1054A000F5FEE36205F782809B9515008215F98170
:1054B0003308B5008A078C42072507008725470077
:1054C0009B9515008A05B295872707010727470195
:1054D00087A0050007A0850007A6450287A6C5028C
:1054E00087A3050207A3850287A1450007A1C50080
:1054F000D372151053F20510D371351053F12510E6
:1055000053F5C710D375D710D3F7771053776710BB
:10551000872087000720C70087A6450107A6C50189
:1055200087A3050107A38501D3F6D0105376C010D9
:1055300053753500D3F52500D3F75700D3F070101D
:105540005377470053706010D3F6A6005376B60029
:10555000D3F717002105537707003E97D3F6C6000F
:10556000A106D3F7E700272ED5FE272CF5FEE3642E
:1055700005F582809B9515008215F9813308B500E9
:105580008A078C4287204700072587009B951500D6
:105590008A05B2950721070087270701872647015B
:1055A0000726870187A2450087A5C50207A88502AF
:1055B00007A2050087A1850007AFC50007A3050165
:1055C00087AE450107A7450207A0450307AE0502C0
:1055D00087A80503D373411053FFE0115371511095
:1055E00053736510D3F23010D37ED51153F7E71003
:1055F00053F5B61053700610D3F60611D3F7C71142
:10560000537616118720C70087A5C50107A8850115
:1056100053772700D3F5B0105375E5015370D001CF
:10562000D3F7770053766600D3F65600D3F0001117
:1056300053770700D3F5A500D3F7C7002105D3F6AC
:1056400016003E975377B700A106D3F7D700272E51
:10565000E5FE272CF5FEE36605F382809B95150099
:1056600082150111F98122AC26A84AA44EA0330864
:10567000B5008A078C4287220700072247009B95C6
:1056800015008A05B295872187000721C700872763
:10569000070187264701072587018725C70187A8B6
:1056A000050087A9450087A3850007A9C50007A8AD
:1056B000050187A4450107A3850107A4C50107A724
:1056C000450207A6C50287A0450307A0C50387AF0B
:1056D000050207AF050387AE850207AE8503D3F841
:1056E0001211D373721053F801115373611053F7F1
:1056F000E71053F6C610D370151053F00510D3F20F
:10570000321153722211D3F1911053718110D3F7DA
:10571000F7115375E511D3F6D611D3F5C5115377AB
:10572000570053764600D3F0300053702000D3F773
:10573000170153750501D3F67600D3F5650053774D
:10574000170053760600D3F7A7002105D3F6B6005D
:105750003E975377C700A106D3F7D700272EE5FE63
:10576000272CF5FEE36805F16224C2242229822950
:10577000056182809B95150082157971F98122B4AB
:1057800026B04AAC4EA852A43308B5008A078C4212
:1057900087260700872707019B9515008A05B29584
:1057A00007A6050007A5450007A7050287A545022E
:1057B000D3FEC610D3F3A610D3F1E71053F0B71001
:1057C00007234700872287000722C7008726470153
:1057D000872787018725C7010725070287A8850036
:1057E00007AAC50007AE050187A9450107A88501DD
:1057F00007A9C50107A6C50207A7450387A0C503DA
:1058000007A1450487A4050307A4050487AF850203
:1058100007AF8503D378131153FEC21153780211D9
:1058200053F6C61053F7E710D3F015105371251037
:1058300053734311D3F2321153722211D3F1D101B8
:1058400053707000D3F7971053758510D3F6F61187
:10585000D3F5E5115376660053775700D3F0400037
:1058600053700100D3F7C70153753500D3F6160105
:10587000D3F505015377070053761600D3F7A70039
:105880002105D3F6B6003E975377C700A106D3F79C
:10589000D700272EE5FE272CF5FEE36A05EF22341C
:1058A00082346229C229222A456182809B95150093
:1058B00082157971F98122B426B04AAC4EA852A45F
:1058C00056A03308B5008A078C42072507008725B4
:1058D00047009B9515008A05B29507270701872782
:1058E000470187A0050007A0850007A6050287A637
:1058F000850287A3450007A3C50087A1450207A12C
:10590000C502D37F151053FF0510D372C71053F291
:10591000D710D378751053F86510D370371053F043
:105920002710872387000723C7008727870187263B
:10593000C701072507028725470287AE050107AE85
:10594000850107A7050387A1050407A6850307A10D
:10595000850487AA450107AAC50187A9450307A9A8
:10596000C50387A4450407A4C504D3FED311537E01
:10597000C31153F7E710D371351053F6C61053F126
:105980002510D3F2F2015372E201D3F35311537392
:105990004311D3F0100153700001D3F73711D3F640
:1059A000261153759510D3F585105377D701D3F190
:1059B00051005376C60153714100D3F77700D3F6F7
:1059C000660053751500D3F50500537737005376FD
:1059D00026002105D3F7A700D3F6B6003E975377EC
:1059E000C700A106D3F7D700272CE5FE272EF5FE2A
:1059F000E36C05ED223482346229C229222A822AEC
:105A0000456182809B95150082153971F98122BC10
:105A100026B84AB44EB052AC56A85AA43308B500C2
:105A20008A078C4207210700872047009B951500B5
:105A30008A05B295072087008726070107274701B7
:105A40008727870187A2050007AE450007A28500CA
:105A500087A8C50087A1050187A3450107A5050201
:105A600007AF450207A6850207A3C50287A5050360
:105A700007A84503D3745110D37EC11153F44010CD
:105A800053FE1011D37F3010D378701053F1E6110C
:105A9000D3F3A610D372C710D370671053F0071159
:105AA00053F3B7100728C7008726C70187270702C7
:105AB000872547020725870207AF850107ABC50188
:105AC00007A6C50307A7450487A1C50407A2450586
:105AD00087AA050407AA050587A9850307A98504E0
